{
  "contractName": "HeroFactory",
  "abi": [
    {
      "anonymous": false,
      "inputs": [
        {
          "indexed": false,
          "internalType": "uint256",
          "name": "heroId",
          "type": "uint256"
        },
        {
          "indexed": false,
          "internalType": "uint256",
          "name": "heroDna",
          "type": "uint256"
        },
        {
          "indexed": false,
          "internalType": "string",
          "name": "rarerity",
          "type": "string"
        },
        {
          "indexed": false,
          "internalType": "uint8",
          "name": "attack",
          "type": "uint8"
        },
        {
          "indexed": false,
          "internalType": "uint8",
          "name": "hp",
          "type": "uint8"
        },
        {
          "indexed": false,
          "internalType": "uint256",
          "name": "cooldownAttack",
          "type": "uint256"
        }
      ],
      "name": "NewHeroCreated",
      "type": "event"
    },
    {
      "anonymous": false,
      "inputs": [
        {
          "indexed": true,
          "internalType": "address",
          "name": "previousOwner",
          "type": "address"
        },
        {
          "indexed": true,
          "internalType": "address",
          "name": "newOwner",
          "type": "address"
        }
      ],
      "name": "OwnershipTransferred",
      "type": "event"
    },
    {
      "inputs": [
        {
          "internalType": "uint256",
          "name": "",
          "type": "uint256"
        }
      ],
      "name": "heroes",
      "outputs": [
        {
          "internalType": "uint256",
          "name": "heroId",
          "type": "uint256"
        },
        {
          "internalType": "uint256",
          "name": "heroDna",
          "type": "uint256"
        },
        {
          "internalType": "string",
          "name": "rarerity",
          "type": "string"
        },
        {
          "internalType": "uint8",
          "name": "attack",
          "type": "uint8"
        },
        {
          "internalType": "uint8",
          "name": "hp",
          "type": "uint8"
        },
        {
          "internalType": "uint256",
          "name": "cooldownAttack",
          "type": "uint256"
        }
      ],
      "stateMutability": "view",
      "type": "function"
    },
    {
      "inputs": [],
      "name": "isOwner",
      "outputs": [
        {
          "internalType": "bool",
          "name": "",
          "type": "bool"
        }
      ],
      "stateMutability": "view",
      "type": "function"
    },
    {
      "inputs": [],
      "name": "owner",
      "outputs": [
        {
          "internalType": "address",
          "name": "",
          "type": "address"
        }
      ],
      "stateMutability": "view",
      "type": "function"
    },
    {
      "inputs": [],
      "name": "renounceOwnership",
      "outputs": [],
      "stateMutability": "nonpayable",
      "type": "function"
    },
    {
      "inputs": [
        {
          "internalType": "address",
          "name": "newOwner",
          "type": "address"
        }
      ],
      "name": "transferOwnership",
      "outputs": [],
      "stateMutability": "nonpayable",
      "type": "function"
    },
    {
      "inputs": [],
      "name": "createNewHero",
      "outputs": [],
      "stateMutability": "nonpayable",
      "type": "function"
    },
    {
      "inputs": [
        {
          "internalType": "uint256",
          "name": "heroId",
          "type": "uint256"
        },
        {
          "internalType": "uint256",
          "name": "_newHeroDna",
          "type": "uint256"
        }
      ],
      "name": "setHeroDna",
      "outputs": [],
      "stateMutability": "nonpayable",
      "type": "function"
    },
    {
      "inputs": [
        {
          "internalType": "uint256",
          "name": "_amount",
          "type": "uint256"
        }
      ],
      "name": "buyGoldToken",
      "outputs": [],
      "stateMutability": "payable",
      "type": "function"
    },
    {
      "inputs": [],
      "name": "getGoldTokenPrice",
      "outputs": [
        {
          "internalType": "uint256",
          "name": "",
          "type": "uint256"
        }
      ],
      "stateMutability": "view",
      "type": "function"
    },
    {
      "inputs": [
        {
          "internalType": "address",
          "name": "_owner",
          "type": "address"
        }
      ],
      "name": "getHeroesByOwner",
      "outputs": [
        {
          "internalType": "uint256[]",
          "name": "",
          "type": "uint256[]"
        }
      ],
      "stateMutability": "view",
      "type": "function"
    }
  ],
  "bytecode": "0x608060405264e8d4a510006001556064600255620186a06003556041600455605f600555600a60065534801561003457600080fd5b50336000806101000a81548173ffffffffffffffffffffffffffffffffffffffff021916908373ffffffffffffffffffffffffffffffffffffffff16021790555060008054906101000a900473ffffffffffffffffffffffffffffffffffffffff1673ffffffffffffffffffffffffffffffffffffffff16600073ffffffffffffffffffffffffffffffffffffffff167f8be0079c531659141344cd1fd0a4f28419497f9722a3daafe3b4186f6b6457e060405160405180910390a361145f806100ff6000396000f3fe6080604052600436106100915760003560e01c8063a880230f11610059578063a880230f1461016b578063a8d4a03b14610182578063b69256e9146101c4578063f2fde38b146101ed578063f4bb6a591461021657610091565b806307c99f4e146100965780636490aa50146100d3578063715018a6146100fe5780638da5cb5b146101155780638f32d59b14610140575b600080fd5b3480156100a257600080fd5b506100bd60048036038101906100b89190610da6565b610232565b6040516100ca9190610fac565b60405180910390f35b3480156100df57600080fd5b506100e86103d1565b6040516100f59190610fe9565b60405180910390f35b34801561010a57600080fd5b506101136103db565b005b34801561012157600080fd5b5061012a6104aa565b6040516101379190610f91565b60405180910390f35b34801561014c57600080fd5b506101556104d3565b6040516101629190610fce565b60405180910390f35b34801561017757600080fd5b5061018061052a565b005b34801561018e57600080fd5b506101a960048036038101906101a49190610dcf565b610828565b6040516101bb9695949392919061106c565b60405180910390f35b3480156101d057600080fd5b506101eb60048036038101906101e69190610df8565b610916565b005b3480156101f957600080fd5b50610214600480360381019061020f9190610da6565b6109dd565b005b610230600480360381019061022b9190610dcf565b6109fa565b005b60606000600a60008473ffffffffffffffffffffffffffffffffffffffff1673ffffffffffffffffffffffffffffffffffffffff1681526020019081526020016000205467ffffffffffffffff8111156102b5577f4e487b7100000000000000000000000000000000000000000000000000000000600052604160045260246000fd5b6040519080825280602002602001820160405280156102e35781602001602082028036833780820191505090505b5090506000805b6007805490508110156103c6578473ffffffffffffffffffffffffffffffffffffffff166009600083815260200190815260200160002060009054906101000a900473ffffffffffffffffffffffffffffffffffffffff1673ffffffffffffffffffffffffffffffffffffffff1614156103b35780838381518110610398577f4e487b7100000000000000000000000000000000000000000000000000000000600052603260045260246000fd5b60200260200101818152505081806103af906112d9565b9250505b80806103be906112d9565b9150506102ea565b508192505050919050565b6000600154905090565b6103e36104d3565b6103ec57600080fd5b600073ffffffffffffffffffffffffffffffffffffffff1660008054906101000a900473ffffffffffffffffffffffffffffffffffffffff1673ffffffffffffffffffffffffffffffffffffffff167f8be0079c531659141344cd1fd0a4f28419497f9722a3daafe3b4186f6b6457e060405160405180910390a360008060006101000a81548173ffffffffffffffffffffffffffffffffffffffff021916908373ffffffffffffffffffffffffffffffffffffffff160217905550565b60008060009054906101000a900473ffffffffffffffffffffffffffffffffffffffff16905090565b60008060009054906101000a900473ffffffffffffffffffffffffffffffffffffffff1673ffffffffffffffffffffffffffffffffffffffff163373ffffffffffffffffffffffffffffffffffffffff1614905090565b600254600860003373ffffffffffffffffffffffffffffffffffffffff1673ffffffffffffffffffffffffffffffffffffffff16815260200190815260200160002054101561057857600080fd5b600254600860003373ffffffffffffffffffffffffffffffffffffffff1673ffffffffffffffffffffffffffffffffffffffff168152602001908152602001600020546105c591906111d9565b600860003373ffffffffffffffffffffffffffffffffffffffff1673ffffffffffffffffffffffffffffffffffffffff168152602001908152602001600020819055506000600160078054905061061c9190611129565b90506000610628610a6d565b9050600061063a600454600554610ab4565b90506000610649600654610b9b565b90506000610658600654610b9b565b905060076040518060c001604052808781526020018681526020018581526020018460ff1681526020018360ff16815260200160008152509080600181540180825580915050600190039060005260206000209060050201600090919091909150600082015181600001556020820151816001015560408201518160020190805190602001906106e9929190610cd9565b5060608201518160030160006101000a81548160ff021916908360ff16021790555060808201518160030160016101000a81548160ff021916908360ff16021790555060a082015181600401555050336009600087815260200190815260200160002060006101000a81548173ffffffffffffffffffffffffffffffffffffffff021916908373ffffffffffffffffffffffffffffffffffffffff160217905550600a60003373ffffffffffffffffffffffffffffffffffffffff1673ffffffffffffffffffffffffffffffffffffffff16815260200190815260200160002060008154809291906107da906112d9565b91905055507fe6e62ec86f595208018994d7e1ab964a67b2afa31131a3d3b4a8bec3c4cdcb3b8585858585600060405161081996959493929190611004565b60405180910390a15050505050565b6007818154811061083857600080fd5b9060005260206000209060050201600091509050806000015490806001015490806002018054610867906112a7565b80601f0160208091040260200160405190810160405280929190818152602001828054610893906112a7565b80156108e05780601f106108b5576101008083540402835291602001916108e0565b820191906000526020600020905b8154815290600101906020018083116108c357829003601f168201915b5050505050908060030160009054906101000a900460ff16908060030160019054906101000a900460ff16908060040154905086565b813373ffffffffffffffffffffffffffffffffffffffff166009600083815260200190815260200160002060009054906101000a900473ffffffffffffffffffffffffffffffffffffffff1673ffffffffffffffffffffffffffffffffffffffff161461098257600080fd5b6000600784815481106109be577f4e487b7100000000000000000000000000000000000000000000000000000000600052603260045260246000fd5b9060005260206000209060050201905082816001018190555050505050565b6109e56104d3565b6109ee57600080fd5b6109f781610be2565b50565b60015481610a08919061117f565b341015610a1457600080fd5b80600860003373ffffffffffffffffffffffffffffffffffffffff1673ffffffffffffffffffffffffffffffffffffffff1681526020019081526020016000206000828254610a639190611129565b9250508190555050565b60006003544442600780549050604051602001610a8c93929190610f54565b6040516020818303038152906040528051906020012060001c610aaf919061132c565b905090565b60606000610ac26064610b9b565b9050828110610b09576040518060400160405280600481526020017f4570696300000000000000000000000000000000000000000000000000000000815250915050610b95565b838110158015610b1857508281105b15610b5b576040518060400160405280600481526020017f5261726500000000000000000000000000000000000000000000000000000000815250915050610b95565b6040518060400160405280600681526020017f436f6d6d6f6e00000000000000000000000000000000000000000000000000008152509150505b92915050565b6000814442600780549050604051602001610bb893929190610f54565b6040516020818303038152906040528051906020012060001c610bdb919061132c565b9050919050565b600073ffffffffffffffffffffffffffffffffffffffff168173ffffffffffffffffffffffffffffffffffffffff161415610c1c57600080fd5b8073ffffffffffffffffffffffffffffffffffffffff1660008054906101000a900473ffffffffffffffffffffffffffffffffffffffff1673ffffffffffffffffffffffffffffffffffffffff167f8be0079c531659141344cd1fd0a4f28419497f9722a3daafe3b4186f6b6457e060405160405180910390a3806000806101000a81548173ffffffffffffffffffffffffffffffffffffffff021916908373ffffffffffffffffffffffffffffffffffffffff16021790555050565b828054610ce5906112a7565b90600052602060002090601f016020900481019282610d075760008555610d4e565b82601f10610d2057805160ff1916838001178555610d4e565b82800160010185558215610d4e579182015b82811115610d4d578251825591602001919060010190610d32565b5b509050610d5b9190610d5f565b5090565b5b80821115610d78576000816000905550600101610d60565b5090565b600081359050610d8b816113fb565b92915050565b600081359050610da081611412565b92915050565b600060208284031215610db857600080fd5b6000610dc684828501610d7c565b91505092915050565b600060208284031215610de157600080fd5b6000610def84828501610d91565b91505092915050565b60008060408385031215610e0b57600080fd5b6000610e1985828601610d91565b9250506020610e2a85828601610d91565b9150509250929050565b6000610e408383610f10565b60208301905092915050565b610e558161120d565b82525050565b6000610e66826110e4565b610e708185611107565b9350610e7b836110d4565b8060005b83811015610eac578151610e938882610e34565b9750610e9e836110fa565b925050600181019050610e7f565b5085935050505092915050565b610ec28161121f565b82525050565b610ed181611262565b82525050565b6000610ee2826110ef565b610eec8185611118565b9350610efc818560208601611274565b610f05816113ea565b840191505092915050565b610f198161124b565b82525050565b610f288161124b565b82525050565b610f3f610f3a8261124b565b611322565b82525050565b610f4e81611255565b82525050565b6000610f608286610f2e565b602082019150610f708285610f2e565b602082019150610f808284610f2e565b602082019150819050949350505050565b6000602082019050610fa66000830184610e4c565b92915050565b60006020820190508181036000830152610fc68184610e5b565b905092915050565b6000602082019050610fe36000830184610eb9565b92915050565b6000602082019050610ffe6000830184610f1f565b92915050565b600060c0820190506110196000830189610f1f565b6110266020830188610f1f565b81810360408301526110388187610ed7565b90506110476060830186610f45565b6110546080830185610f45565b61106160a0830184610ec8565b979650505050505050565b600060c0820190506110816000830189610f1f565b61108e6020830188610f1f565b81810360408301526110a08187610ed7565b90506110af6060830186610f45565b6110bc6080830185610f45565b6110c960a0830184610f1f565b979650505050505050565b6000819050602082019050919050565b600081519050919050565b600081519050919050565b6000602082019050919050565b600082825260208201905092915050565b600082825260208201905092915050565b60006111348261124b565b915061113f8361124b565b9250827fffffffffffffffffffffffffffffffffffffffffffffffffffffffffffffffff038211156111745761117361135d565b5b828201905092915050565b600061118a8261124b565b91506111958361124b565b9250817fffffffffffffffffffffffffffffffffffffffffffffffffffffffffffffffff04831182151516156111ce576111cd61135d565b5b828202905092915050565b60006111e48261124b565b91506111ef8361124b565b9250828210156112025761120161135d565b5b828203905092915050565b60006112188261122b565b9050919050565b60008115159050919050565b600073ffffffffffffffffffffffffffffffffffffffff82169050919050565b6000819050919050565b600060ff82169050919050565b600061126d8261124b565b9050919050565b60005b83811015611292578082015181840152602081019050611277565b838111156112a1576000848401525b50505050565b600060028204905060018216806112bf57607f821691505b602082108114156112d3576112d26113bb565b5b50919050565b60006112e48261124b565b91507fffffffffffffffffffffffffffffffffffffffffffffffffffffffffffffffff8214156113175761131661135d565b5b600182019050919050565b6000819050919050565b60006113378261124b565b91506113428361124b565b9250826113525761135161138c565b5b828206905092915050565b7f4e487b7100000000000000000000000000000000000000000000000000000000600052601160045260246000fd5b7f4e487b7100000000000000000000000000000000000000000000000000000000600052601260045260246000fd5b7f4e487b7100000000000000000000000000000000000000000000000000000000600052602260045260246000fd5b6000601f19601f8301169050919050565b6114048161120d565b811461140f57600080fd5b50565b61141b8161124b565b811461142657600080fd5b5056fea26469706673582212209bb30b0567db710d7bd5e13322288f16531c6e479b40680dac52c588653b12dd64736f6c63430008000033",
  "immutableReferences": {},
  "source": "// SPDX-License-Identifier: MIT\r\npragma solidity 0.8.0;\r\nimport './Ownable.sol';\r\n\r\n\r\ncontract HeroFactory is Ownable {\r\n   \r\n\r\n   uint goldTokenPrice = 0.000001 ether ;     \r\n   //100g token per sum \r\n   uint sumHeroPrice = 100; \r\n   uint numberDna = 10**5;\r\n   uint rareChance = 65;\r\n   uint epicChance = 95;\r\n   uint baseAttackAndHp = 10; \r\n\r\n  event NewHeroCreated(uint heroId, uint heroDna, string rarerity, uint8 attack, uint8 hp, uint cooldownAttack);\r\n\r\n  struct Hero {\r\n    uint heroId;\r\n    uint heroDna;\r\n    string rarerity;\r\n    uint8 attack;\r\n    uint8 hp;\r\n    uint cooldownAttack;\r\n  }\r\n\r\n  Hero[] public heroes;\r\n\r\n\r\n//token money\r\n//currently set to unlimited\r\n  mapping(address => uint) goldTokenOwned ;\r\n\r\n  mapping (uint => address ) heroToOwner ;\r\n  mapping (address => uint ) ownerNumberHeroCount ;\r\n\r\n\r\n  modifier onlyOwnerOf(uint _heroId) {\r\n      require(heroToOwner[_heroId] ==  msg.sender);\r\n      _;\r\n  }\r\n\r\n\r\n// create new Hero function;\r\n  function createNewHero() public {\r\n      require(goldTokenOwned[msg.sender] >= sumHeroPrice);\r\n      goldTokenOwned[msg.sender] = goldTokenOwned[msg.sender] - sumHeroPrice;\r\n      uint heroId = heroes.length + 1;\r\n      uint randDna = randomDnaNumber();\r\n      string memory rarerity = generatetHeroRareRity(rareChance,epicChance);\r\n      uint8 attack = uint8(randomFromOneToNumber(baseAttackAndHp));\r\n      uint8 hp = uint8(randomFromOneToNumber(baseAttackAndHp));\r\n\r\n      //push hero to array[]\r\n      heroes.push(Hero(heroId,randDna,rarerity,attack,hp,0));\r\n      \r\n      heroToOwner[heroId] = msg.sender;\r\n      ownerNumberHeroCount[msg.sender]++;\r\n      emit NewHeroCreated(heroId,randDna,rarerity,attack,hp,0);\r\n  }\r\n \r\n\r\n\r\n  function setHeroDna( uint heroId ,uint _newHeroDna) public onlyOwnerOf(heroId) {\r\n    Hero storage myHero =  heroes[heroId];\r\n    myHero.heroDna = _newHeroDna;\r\n  }\r\n\r\n  function randomDnaNumber() internal view returns (uint){\r\n       return uint(keccak256(abi.encodePacked(block.difficulty, block.timestamp, heroes.length))) % numberDna;\r\n  }\r\n\r\n  function randomFromOneToNumber(uint _number) internal view returns (uint) {\r\n       return uint(keccak256(abi.encodePacked(block.difficulty, block.timestamp, heroes.length))) % _number; \r\n  }\r\n\r\n  function generatetHeroRareRity(uint _rareChance , uint _epicChance) internal view returns (string memory) {\r\n      uint rand = randomFromOneToNumber(100);\r\n      if (rand >= _epicChance) {\r\n          return \"Epic\";\r\n      } else if (rand >= _rareChance && rand < _epicChance) {\r\n          return \"Rare\";\r\n      } else {\r\n          return \"Common\";\r\n      }\r\n  }\r\n\r\n  function buyGoldToken (uint _amount ) public payable {\r\n      require(msg.value >= _amount * goldTokenPrice);\r\n       goldTokenOwned[msg.sender] += _amount;\r\n  }\r\n\r\n  function getGoldTokenPrice() public view returns (uint) {\r\n      return goldTokenPrice;\r\n  }\r\n\r\n\r\n\r\n  //Get all index heroes of owner to array to the frontend \r\n  function getHeroesByOwner(address _owner) external view returns(uint[] memory) {\r\n    uint[] memory result = new uint[](ownerNumberHeroCount[_owner]);\r\n    uint counter = 0;\r\n    for (uint i = 0; i < heroes.length; i++) {\r\n      if (heroToOwner[i] == _owner) {\r\n        result[counter] = i;\r\n        counter++;\r\n      }\r\n    }\r\n    return result;\r\n  }\r\n\r\n}\r\n",
  "sourcePath": "C:\\wfh\\work\\demo\\demogame\\contracts\\HeroFactory.sol",
  "compiler": {
    "name": "solc",
    "version": "0.8.0+commit.c7dfd78e.Emscripten.clang"
  },
  "schemaVersion": "3.4.4",
  "updatedAt": "2021-12-29T17:25:40.127Z",
  "devdoc": {
    "kind": "dev",
    "methods": {
      "isOwner()": {
        "returns": {
          "_0": "true if `msg.sender` is the owner of the contract."
        }
      },
      "owner()": {
        "returns": {
          "_0": "the address of the owner."
        }
      },
      "renounceOwnership()": {
        "details": "Allows the current owner to relinquish control of the contract."
      },
      "transferOwnership(address)": {
        "details": "Allows the current owner to transfer control of the contract to a newOwner.",
        "params": {
          "newOwner": "The address to transfer ownership to."
        }
      }
    },
    "version": 1
  },
  "userdoc": {
    "kind": "user",
    "methods": {
      "renounceOwnership()": {
        "notice": "Renouncing to ownership will leave the contract without an owner. It will not be possible to call the functions with the `onlyOwner` modifier anymore."
      }
    },
    "version": 1
  }
}